:100000000C948E030C94D5030C94D5030C94D50357
:100010000C94D5030C94D5030C94D5030C94D50300
:100020000C94D5030C94D5030C94EF200C94C121AF
:100030000C940E180C94D5030C94D5030C94D50392
:100040000C94D5030C94D5030C94D5030C94D503D0
:100050000C94D5030C9476180C94D5030C94D5030A
:100060000C94D5030C94D5030C94D5030C94D503B0
:100070000C94D5030C94D5030C94D5030C94D503A0
:100080000C94D5030C94D5030C94D5030C94D50390
:100090000C94D5030C94D5030C94D5030C94D50380
:1000A0000C94D5030C94D5030C94D503210523059A
:1000B0002E052505270529052B052D0530053205BB
:1000C00034053F05360538053A053C053E05410532
:1000D000440E440E760E760EB40ED40E4410441028
:1000E000160F4410C30FC30F3410441044103D10BA
:1000F000D00FD00FD00FD00FD00FD00FD00FD00F08
:10010000D00FD00FD00FD00FD00FD00FD00FD00FF7
:10011000E10FEF0FF60FFD0F0710D310D310E5100E
:10012000E510DC10E510E510E510D310D310E11058
:10013000E510E510E1102E225522472355224723D2
:10014000A122C42247231A232923015814001A008C
:100150000800150017001C0018000C001200130006
:100160002A0004001600070009000A000B000D0019
:100170000E000F00025728621D001B000600190028
:100180002C000500110010000057015701001E004F
:100190001F0020002100220023002400250026004B
:1001A0002700010010503100010001003A003B001F
:1001B0003C003D003E003F000100E0000100010066
:1001C000010040004100420043004400450001009E
:1001D0000100010001000100010001000100010017
:1001E0000100010001000100010001000100010007
:1001F00001000100010001000100010001000100F7
:1002000001000100010001000100010001000100E6
:10056000010001000100010001000403300000004F
:1005700012036B006500790062006F006100720079
:1005800064000000160371006D006B0062007500CE
:1005900069006C0064006500720000000403090437
:1005A00009026D00040100A0FA0904000001030122
:1005B0000100092111010001224000070581030803
:1005C000000A0904010001030102000921110100D0
:1005D00001224D000705820308000A0904020001F8
:1005E00003000000092111010001223600070583E4
:1005F0000308000A09040300010300000009211197
:1006000001000122390007058403200001120110B6
:100610000100000008EDFE60600100010203010519
:10062000010906A101050719E029E7150025019533
:1006300008750181020508190129059505750191C3
:10064000029501750391010507190029F715002589
:100650000195F875018102C005010980A10185029B
:100660001601002603001A81002A830075109501E7
:100670008100C0050C0901A1018503160100269C1B
:10068000021A01002A9C02751095018100C0050123
:100690000902A1010901A100050919012905150097
:1006A00025019505750181029501750381010501FB
:1006B000093009311581257F9502750881060938B1
:1006C0001581257F950175088106050C0A380215EC
:1006D00081257F950175088106C0C005010906A125
:1006E00001050719E029E715002501950875018125
:1006F00002950175088101050819012905950575FF
:100700000191029501750391010507190029FF1553
:100710000026FF00950675088100C00011241FBE49
:10072000CFEFDAE0DEBFCDBF04B603FE27C0809175
:10073000730290917402A0917502B0917602873095
:10074000904BA740B04BD1F41092730210927402F8
:10075000109275021092760214BE84B7877F84BF10
:100760000FB6F894A895809160008861809360002E
:10077000109260000FBEE0E0F8E3099511E0A0E000
:10078000B1E0E2ECF7E402C005900D92AE37B1079C
:10079000D9F722E0AEE7B1E001C01D92A337B2075E
:1007A000E1F70E94161E0C94DF230C9400000895BC
:1007B000089581E0089508950F931F93CF93DF93D9
:1007C0009C013A9521153F4148F5EB018C0190FFC2
:1007D00003C080EEFB01099511FF03C081EEFE010D
:1007E000099512FF03C082EEFE01099513FF03C0B5
:1007F00083EEFE0109950115104180F084EEFE01A3
:10080000099585EEFE01099586EEFE01099587EEB4
:10081000FE01DF91CF911F910F910994DF91CF914C
:100820001F910F910895877091E001C0990F8A95EB
:10083000EAF7892F0E94D8160C948F16877091E0E2
:1008400001C0990F8A95EAF7892F0E94D8160C9457
:100850008F16877091E001C0990F8A95EAF7892F6A
:100860000E94DE160C948F16877091E001C0990FDC
:100870008A95EAF7892F0E94DE160C948F16CF9383
:10088000DF93EC01805E9109089710F0209719F42E
:100890006EE174E002C063E174E0CE010E94DC030B
:1008A0008C2FDF91CF910C94AA0CCF93DF93EC01A6
:1008B0000E94A10DCE01805E9109089710F020974B
:1008C00019F464E374E002C069E274E0CE01DF91E0
:1008D000CF910C94DC0381E008950C94D9030E941D
:1008E000C1102FEF84E39CE0215080409040E1F75D
:1008F00000C000000C949C18FF920F931F93CF939D
:10090000DF938C01FC01C081D1818091B101811103
:1009100013C08281882349F0CE010E94F115F82E80
:10092000682FCE010E94961504C0CE010E94C51505
:10093000F82EBE018F2D04C0CE010E94F115BE011C
:100940000E940B06EC01B8010E946F0AB801CE01AB
:100950000E946D04882309F449C1B801CE010E94A8
:10096000B10A882309F442C1B801CE010E94690886
:10097000882309F43BC1C531FCE5DF0739F50E9446
:10098000C216282FF80182814091490150914A01F5
:10099000882379F02A7A91E009F490E090937E011F
:1009A000911102C069E201C065E3CA010E949D176E
:1009B0000AC080917E01811102C069E201C065E335
:1009C000CA010E94A8170E948F1610C1C6318CE57B
:1009D000D80708F07EC0C130ECE5DE0759F4F80115
:1009E0008281882309F402C1809130028160809362
:1009F0003002FCC0C230FCE5DF0708F452C0F80149
:100A00008281882309F455C00E941B17811102C0FE
:100A10000E9401170E94381790E09093650280931E
:100A20006402FE01E350FC45E231F10530F4EA5A7C
:100A3000FF4F809164020C948F2380916402816047
:100A400027C0826025C0846023C0806121C080628D
:100A50001FC080641DC080681BC08460886018C08F
:100A60008E7F16C08D7F14C08B7F12C08F7E10C00A
:100A70008F7D0EC08F7B0CC08F770AC08B7F877FE6
:100A800007C087FB222720F991E0922790FB87F986
:100A900080936402809164020E943C170E94C110FE
:100AA000A5C0C115DC4569F081E080938301809386
:100AB0008401C801DF91CF911F910F91FF900C9499
:100AC0006B04F8018281882309F490C00E946F04AE
:100AD0008DC0C63DECE5DE0759F5F801828188231B
:100AE00061F0109284010E944018909382018093DB
:100AF000810180E20E94000E79C0809184018823E8
:100B000021F080E20E94070E71C0809181019091D6
:100B100082010E944C18883C910598F780E20E945F
:100B2000070E88E20E94AA0C88E20E94A10D5EC016
:100B3000C73DFCE5DF0708F044C0C43D8CE5D8079D
:100B400019F5F8018281882351F0109283010E94E7
:100B500040189093800180937F0182E0CBCF8091F9
:100B6000830181110FC080917F01909180010E94CB
:100B70004C18883C910530F486E20E94AA0C86E26B
:100B80000E94A10D82E0BECFC53DDC4509F08CCFAF
:100B9000F80182818111A5CF809184018111B1CFAB
:100BA00080918101909182010E944C18883C9105AE
:100BB00008F0A7CF87E20E94AA0C87E20E94A10D4D
:100BC000A0CFC93DFCE5DF0731F4F801828188231D
:100BD00069F080E009C0CA3DDC4509F065CFF80145
:100BE0008281882319F082E00E94B21E80E0DF91AA
:100BF000CF911F910F91FF9008950C94B8080E9417
:100C00000D0B0C94BA080C94DB030C94030680E0E3
:100C100090E0089508959BE0799FF001112491E2FE
:100C2000899FE00DF11D1124E60FF11DEE0FFF1F4E
:100C3000E65BFE4F859194910895880F991FFC0102
:100C4000E659FA4F859194910895CF93DF930E94CE
:100C50000B060E94C807EC01811520E59207F0F50C
:100C6000811530E4930708F018C1883E910500F51E
:100C7000803E910508F088C1883A910570F4853A64
:100C8000910508F09AC08130910509F47DC108F4FE
:100C900034C1049708F078C130C18D3B910508F448
:100CA00097C0803C910508F428C1805C9109E7C099
:100CB0008115904258F4C11581E0D80708F064C14D
:100CC000C03FD10508F419C1D0655EC1C11590E3DC
:100CD000D90708F0D8C0CE019F70D1C0811525E595
:100CE000920708F043C0811534E5930708F0ECC083
:100CF000811542E5940708F5C11581E5D80708F08C
:100D0000CFC02C2F237081E090E002C0880F991F84
:100D10002A95E2F79C689E0174E0369527957A95AE
:100D2000E1F72370922BCF70C695C69530E2C39F32
:100D3000E0011124C82BD92B27C1869586959E01E9
:100D400023703327C115D34508F0AFC040E2849F1C
:100D5000C0011124C1E0D0E002C0CC0FDD1F2A95F4
:100D6000E2F78C2B9D2BEC01DC680EC1811529E587
:100D7000920778F4811538E5930708F0AAC0811529
:100D8000964508F0BAC0CF71DD27DC2FCC27D062A2
:100D9000FBC0C1158AE5D80708F4A0C0CE01905663
:100DA0008115904208F0A9C08D2F8F710E944508CF
:100DB000DD27D0628F71D82BE7C0853A910509F401
:100DC0009FC0863A910509F09EC0C2E8D0E4DCC01D
:100DD000883A910509F49AC0893A910509F499C0B5
:100DE0008A3A910509F498C08B3A910509F497C0A5
:100DF0008C3A910509F496C08B3B910509F495C096
:100E00008C3B910509F494C08D3A910509F493C087
:100E1000803B910509F492C08E3A910509F491C086
:100E20008F3A910509F490C0813B910509F48FC078
:100E3000823B910509F48EC0833B910509F48DC076
:100E4000843B910509F48CC0853B910509F48BC066
:100E5000863B910509F48AC0873B910509F489C056
:100E6000883B910509F488C0893B910509F487C046
:100E70008A3B910509F486C0C0E0D4E485C00E9495
:100E80001D06EC0181C0CE019927D3FF03C0EC0100
:100E9000D86C7AC0EC01D06C77C0DF70D06A74C0B7
:100EA000DC2FCC27C16FD06A6FC040E2849FC001A5
:100EB0001124C1E0D0E002C0CC0FDD1F2A95E2F77B
:100EC000C82BD92BDA6860C0D82FCC27C46FD06A62
:100ED0005BC0D82FCC27C06FD06A56C08C2F8F70C4
:100EE000806E90E0906A24E0D695C7952A95E1F748
:100EF000CF709C013C2BE90147C0C0E0D0E044C06A
:100F0000C1E8D0E441C0C3E8D0E43EC0C2EED4E4BE
:100F10003BC0C9EED4E438C0CAEED4E435C0C5EB5A
:100F2000D4E432C0C6EBD4E42FC0C3EBD4E42CC06D
:100F3000C4EBD4E429C0C7EBD4E426C0CCECD4E4A1
:100F400023C0CDECD4E420C0C3E8D5E41DC0CAE87A
:100F5000D5E41AC0C2E9D5E417C0C4E9D5E414C089
:100F6000C1E2D6E411C0C3E2D6E40EC0C4E2D6E4C6
:100F70000BC0C5E2D6E408C0C6E2D6E405C0C7E2AD
:100F8000D6E402C0CAE2D6E4CE01DF91CF91089543
:100F90008238910549F1B0F48133910509F458C0C4
:100FA00048F48932910509F44EC08A32910509F45A
:100FB00054C008958533910509F440C089339105E3
:100FC00099F00895833E910529F138F4803E91050A
:100FD00091F0823E9105A1F00895863E9105F9F0C9
:100FE000873E910531F108952091640220FD3AC0B9
:100FF00021FD38C008958091640280FD35C032C063
:101000008091640282FF32C08091640284FD30C00E
:1010100083EE39C08091640282FD28C0F5CF8091B3
:10102000640283FF27C08091640284FD21C087EEA3
:101030002AC08091640283FD1DC0F5CF80916402B7
:1010400085FD1AC01BC08091640285FD17C014C0C5
:101050008091640286FD14C015C08091640286FDF3
:1010600011C00EC080EE0FC089E30DC082EE0BC030
:1010700080E009C086EE07C089E205C085E303C0B1
:101080008AE201C081E390E008959091640292FFAA
:101090000DC0282F2871283019F4877F846006C07E
:1010A000282F2471243011F48B7F886093FF0DC0AA
:1010B000282F2871283119F4877E846106C0282FD3
:1010C0002471243111F48B7E886194FD877E08950C
:1010D00008950F931F93CF93FB012281211102C02A
:1010E000C1E041C08C01C0919201C11125C086317F
:1010F0009C45B1F70E94680881E0809392010E94AC
:101100004018909391018093900110928501109264
:101110008701109286011092890110928801109225
:101120008B0110928A0110928D0110928C01109205
:101130008F0110928E0117C08091900190919101C2
:101140000E944C188C32914058F690918501E92FFD
:10115000F0E0EE0FFF1FEA57FE4F118300839F5F01
:1011600090938501C0E08C2FCF911F910F9108952E
:101170000C94D7030C94D80385B7806885BF85B7D6
:10118000806885BFA7E6B1E041E050E023E02A0F88
:101190008D91E82FE295EF70F0E031A18F70BA01E8
:1011A00002C0660F771F8A95E2F7CB01962F9095C4
:1011B000932391A392A1892B82A32A13E9CFACE5B3
:1011C000B1E041E050E02BE02A0F8D91E82FE2954D
:1011D000EF70F0E031A18F70BA0102C0660F771F87
:1011E0008A95E2F7CB01962F9095932391A392A134
:1011F000892B82A32A13E9CF10929A0110929901A8
:10120000109294011092930110929C0110929B01F4
:10121000109296011092950110929E0110929D01DC
:1012200010929801109297010C94FD054F925F92D5
:101230007F928F929F92AF92BF92CF92DF92EF9266
:10124000FF920F931F93CF93DF9327E6E22E21E0C7
:10125000F22EC3E9D1E001E010E0992493946E01ED
:10126000A880B98019821882D7018D917D01E82F5D
:10127000E295EF70F0E021A18F70A80102C0440F49
:10128000551F8A95E2F7CA01242B21A322A1842E9F
:101290008094282122A350EA5A95F1F79CE5492E23
:1012A00091E0592E20E030E0D2017D912D01472FB1
:1012B00042954F7050E0DA0190967C9048815981B8
:1012C0007F70D80102C0AA0FBB1F7A95E2F7BD015B
:1012D000672141F4B801022E02C0660F771F0A94FD
:1012E000E2F702C060E070E0462B572B5983488339
:1012F0002F5F3F4F2B303105B9F691A1892281A292
:1013000092A1892B82A32296F60180819181A81651
:10131000B90641F090929F010E9440189093A1015C
:101320008093A001F1E0C939DF0709F098CF8091DF
:101330009F01882311F18091A0019091A1010E9449
:101340004C180697D0F0809193019091940190935E
:101350009A018093990180919501909196019093C3
:101360009C0180939B0180919701909198019093AB
:101370009E0180939D0110929F010E94FF0581E0D4
:10138000DF91CF911F910F91FF90EF90DF90CF9061
:10139000BF90AF909F908F907F905F904F900895F7
:1013A000E82FF0E0EE0FFF1FE756FE4F808191819E
:1013B00008950895CF93DF93FC012785211116C06E
:1013C000EC0181E0878787810E94C51688850E948D
:1013D000D8160E948F16EA81FB816A897B89CE012B
:1013E0000696309719F0DF91CF910994DF91CF9154
:1013F0000895CF93DF93FC012081223041F4FB015B
:10140000EC01828193810E943F0481E08987DF9112
:10141000CF910895FC018081813021F4FB0180810E
:10142000918105C0823029F4FB01828193810C9463
:101430003F040895FC018081813021F4FB0180810B
:10144000918105C0823029F4FB01828193810C9443
:1014500055040895EF92FF920F931F93CF93DF935C
:10146000FC012085211134C0EC01E380F480F7E514
:10147000FF1A24E12E9DC0012F9D900D1124DC0147
:10148000A050BF4F1496ED91FC91159752966D9117
:101490007C9153978A5F9E4F309709F0099584E1BC
:1014A0008E9D80018F9D100D112400501F4FF8015B
:1014B00087810E94CB16F80180850E94DE160E946B
:1014C0008F1618821F8219861092A3011092A20112
:1014D000DF91CF911F910F91FF90EF900895DF92D0
:1014E000EF92FF920F931F93CF93DF93FB01228123
:1014F000222379F1209148012F3F59F18C01C6E058
:10150000D1E0E12CF12CDD24D39480914801082E08
:10151000000C990B8E159F05E4F088818823A1F0BB
:101520008B819C810817190739F48091A201909151
:10153000A3010817190741F0DF82CE0106970E9428
:10154000DA09CE010E942A0AFFEFEF1AFF0A649619
:10155000DCCFDF91CF911F910F91FF90EF90DF9043
:101560000895EF92FF920F931F93CF93DF939C0107
:1015700037552F3F310511F008F047C04091480121
:10158000042E000C550B4217530714F42093480106
:10159000FB017C01828194E1929F8001939F100D59
:1015A0001124E801C050DF4F8E8792818E819923EC
:1015B00011F1FA86E9868F5F8E830E9440189C871E
:1015C0008B870E94FE168F830E94C21688870E9416
:1015D000D5169885892B8887E881F9816A897B8966
:1015E000C8018A5F9E4F309709F00995F092A301D8
:1015F000E092A2010AC0882341F08F85882329F058
:10160000C8018A5F9E4F0E942A0A81E0DF91CF9134
:101610001F910F91FF90EF900895CF92DF92EF927C
:10162000FF920F931F93CF93DF93809148018F3FD9
:10163000C1F1C0E0D4E12C2F30E080914801082EA8
:10164000000C990B8217930764F1D29FF001D39F8E
:10165000F00D1124E050FF4FE088F188E114F1040F
:1016600019F488ECE82EF12CD29F6001D39FD00CA6
:101670001124860100501F4FF8018681882379F0DC
:10168000838594850E944C18E816F90640F4C80139
:101690000E94DA09C6018A5F9E4F0E942A0ACF5F24
:1016A000CACFDF91CF911F910F91FF90EF90DF9004
:1016B000CF9008959093A9018093A8010895E09197
:1016C000A801F091A901309721F00190F081E02D5F
:1016D000099480E00895E091A801F091A901309764
:1016E00021F00280F381E02D09940895E091A80192
:1016F000F091A901309721F00480F581E02D099443
:1017000008952091A6013091A7018217930771F0E7
:101710009093A7018093A601E091A801F091A901FF
:10172000309721F00680F781E02D099408952091EB
:10173000A4013091A5018217930771F09093A50140
:101740008093A401E091A801F091A901309721F0C4
:101750000084F185E02D0994089508950C94AD0B53
:1017600081E008950E9437180E94BC080C940C195F
:101770004F925F927F928F929F92AF92BF92CF9241
:10178000DF92EF92FF920F931F93CF93DF93CDB72A
:10179000DEB72A970FB6F894DEBF0FBECDBF0E940A
:1017A00016090E94B00B811111C08FEF89838A83C3
:1017B0001B820E9440188160782F9D838C83498111
:1017C0005A816B818D810E94760C57C09BEAC92E8D
:1017D00091E0D92E00E010E0AA24A394B12C702E41
:1017E000802F0E94D0094C01F601419051906F0169
:1017F000482659264114510431F40F5F1F4F03301E
:10180000110569F7D2CF8091300281FD0E94D9097C
:1018100020E030E07501022E02C0EE0CFF1C0A949D
:10182000E2F7C70184219521892B09F12E837F825C
:101830008E209F2091E0892809F490E098870E94EB
:1018400040188160782F9A8789874E815F816885EB
:101850008A850E94760C000F111FF801E555FE4F96
:1018600080819181E826F926F182E08206C02F5F0F
:101870003F4F2B30310571F6C0CF0E94AF1B109146
:10188000AA010E945F0B1817D9F00E945F0B80938A
:10189000AA012A960FB6F894DEBF0FBECDBFDF9126
:1018A000CF911F910F91FF90EF90DF90CF90BF905D
:1018B000AF909F908F907F905F904F900C94050613
:1018C0002A960FB6F894DEBF0FBECDBFDF91CF9141
:1018D0001F910F91FF90EF90DF90CF90BF90AF904E
:1018E0009F908F907F905F904F900895CF93DF935C
:1018F000CDB7DEB72B970FB6F894DEBF0FBECDBFC6
:101900004F83588769877A878B87DE01119686E037
:10191000FD0111928A95E9F785E0FE013796019065
:101920000D928A95E1F749815A816B817C818D8185
:101930009E810E9468132B960FB6F894DEBF0FBEEF
:10194000CDBFDF91CF910895FC01808191810E94EC
:1019500030160895882309F4F3C0682F8238C1F443
:101960000E945F0B81FDECC069E380914901909179
:101970004A010E949D170E948F162FEF81EE94E07E
:10198000215080409040E1F700C0000069E319C099
:101990008338F9F40E945F0B80FDD2C063E580912B
:1019A000490190914A010E949D170E948F162FEFC6
:1019B00081EE94E0215080409040E1F700C00000AB
:1019C00063E58091490190914A010E94A8170C9407
:1019D0008F168438C1F40E945F0B82FDB1C067E4AA
:1019E0008091490190914A010E949D170E948F1693
:1019F0002FEF81EE94E0215080409040E1F700C04D
:101A0000000067E4DECF8CEF860F813A38F48091D6
:101A1000490190914A010E949D17D9CF80E2860F1B
:101A2000883048F4677081E001C0880F6A95EAF752
:101A30000E94C516CCCF8BE5860F833070F4653AD3
:101A400029F0663A31F083E890E005C081E890E043
:101A500002C082E890E00C94810B88E5860F853106
:101A600008F06EC0683A61F1693A69F16A3A71F159
:101A70006B3A79F16C3A81F16B3B89F16C3B91F1F6
:101A80006D3A99F1603BA1F16E3AA9F16F3AB1F16B
:101A9000613BB9F1623BC1F1633BC9F1643BD1F1F8
:101AA000653BD9F1663BE1F1673BE9F1683BF1F158
:101AB000693BF9F16A3B09F43FC080E090E03EC029
:101AC00082EE90E03BC089EE90E038C08AEE90E074
:101AD00035C085EB90E032C086EB90E02FC083EB01
:101AE00090E02CC084EB90E029C087EB90E026C00A
:101AF0008CEC90E023C08DEC90E020C083E891E076
:101B00001DC08AE891E01AC082E991E017C084E91B
:101B100091E014C081E292E011C083E292E00EC035
:101B200084E292E00BC085E292E008C086E292E097
:101B300005C087E292E002C08AE292E00C94970B23
:101B40000895882309F45BC0682F823879F40E94D5
:101B50005F0B81FF54C069E38091490190914A0174
:101B60000E949D170E948F1669E310C08338B1F45C
:101B70000E945F0B80FF43C063E580914901909113
:101B80004A010E949D170E948F1663E580914901CA
:101B900090914A010E94A8170C948F16843879F40A
:101BA0000E945F0B82FF2BC067E4809149019091F6
:101BB0004A010E949D170E948F1667E4E7CF8CEFC1
:101BC000860F813A18F380E2860F883048F46770F8
:101BD00081E001C0880F6A95EAF70E94CB16DCCF3E
:101BE0008BE5860F833020F480E090E00C94810B2D
:101BF000685A653120F480E090E00C94970B0895CA
:101C0000882321F00E94C5160C948F16089588230E
:101C100021F00E94CB160C948F1608954F925F927C
:101C20006F927F92BF92CF92DF92EF92FF920F93CB
:101C30001F93CF93DF937C01D62FC72FFC01058123
:101C400002950F70128111110E94E5160E948816EC
:101C5000882379F0112369F080E28D0F883048F0F5
:101C600082E00E9471160E94881691E0B82EB92673
:101C700001C0B12CCC2EC2948FE0C822D12CF60129
:101C8000E859FF4F0C948F238C2F807FCF708823CF
:101C900011F0C295C07F112399F0CC2309F4CFC174
:101CA00080E28D0F883010F0D11104C08C2F0E947B
:101CB000C51603C08C2F0E94D8160E948F16BFC174
:101CC0008D2F0E94A10DCC2309F4DEC180E28D0F7F
:101CD000883010F0D11104C08C2F0E94CB1603C0A5
:101CE0008C2F0E94DE160E948F16CEC18C2F807F13
:101CF000CF70803211F0C295C07FDD2319F0D13052
:101D0000C9F022C0112371F0002341F0013031F4F9
:101D10000E94FE168C2B0E94F816B6C10E94FE1679
:101D20008C2B46C1002319F0013009F4ADC10E948B
:101D3000FB1618C0112321F0063008F0A5C10EC013
:101D4000053008F0A1C10EC0112351F0002331F07D
:101D5000F701858180FF73C18F7085838C2F28C127
:101D600001117EC18C2F2AC18C2F86958695837098
:101D700090E0009719F0019761F086C1112321F0DE
:101D80008D2F9C2F937002C080E090E00E94810B09
:101D90008BC1112321F08D2F9C2F937002C080E006
:101DA00090E00E94970B80C11123F9F0D53F51F0CC
:101DB000D63F71F0D43FA9F480915E0290915F020A
:101DC00081600BC080915E0290915F02826005C0CD
:101DD00080915E0290915F02846090935F02809395
:101DE0005E028D2F0E94B71A1EC0D53F51F0D63F1C
:101DF00071F0D43FA9F480915E0290915F028E7FD2
:101E00000BC080915E0290915F028D7F05C0809132
:101E10005E0290915F028B7F90935F0280935E02DF
:101E20008D2F0E941F1B0E94A41B3EC18C2F83700C
:101E300009F050C0111134C18D2F8295869587709D
:101E4000880F880F9D2F9F70492E512C612C712C6B
:101E5000082E04C0440C551C661C771C0A94D2F74B
:101E6000D4FF14C00FE010E020E030E0B901A80179
:101E700004C0440F551F661F771F8A95D2F7CB0108
:101E8000BA01609570958095909503C060E070E010
:101E9000CB01C695C695C370D0E0C230D10561F0C4
:101EA000C330D10581F064297529862997292197A6
:101EB00071F00E94AB14F4C0642975298629972912
:101EC0000E94BD14EDC00E94AB14C301B2010E9478
:101ED0009914E6C0112319F08C2F817001C08695EA
:101EE000882309F4DDC08D2F829586958770880F31
:101EF000880F9D2F9F70492E512C612C712C082E1C
:101F000004C0440C551C661C771C0A94D2F7D4FFFD
:101F100014C00FE010E020E030E0B901A80104C0D7
:101F2000440F551F661F771F8A95D2F7CB01BA0160
:101F3000609570958095909503C060E070E0CB014E
:101F4000C695C695C3704C2F50E04230510569F0DC
:101F50004330510589F06429752986299729413034
:101F6000510571F00E9471159BC06429752986295D
:101F700097290E94831594C00E947115C301B20174
:101F80000E945F158DC08D2F90E0FC01E05EF1098D
:101F9000E531F10508F04FC0E858FF4F0C948F234E
:101FA000DF708C2F8F71112331F00E94F8148D2F68
:101FB0000E94000E69C00E9419158D2F0E94070E05
:101FC00063C0112341F0053008F05EC08C2F8F7183
:101FD0000E943E1559C0063008F056C0F7CF1123B5
:101FE00039F08C2F8F710E94F8144EC01123C9F361
:101FF0008C2F8F710E94191547C0112329F08C2F47
:102000008F710E94E31440C00E94DE143DC0112372
:1020100049F0CF718C2F0E94F81463E08C2F0E943E
:10202000681632C081E00E947116023068F182E0C9
:102030000E94711629C0112331F0002391F28D2FD7
:102040000E94AA0C21C0002399F2D93349F45FEF12
:1020500067EE73E0515060407040E1F700C000004F
:102060008D2F0E94A10D10C04C2F4F706D2FC701F6
:102070000E9407060E940C1417C04C2F4F706D2F42
:10208000C7010E940A0610C088E0C816D10441F0BA
:102090005CF0EAE0CE1AD108F2E0CF16D10420F4C9
:1020A0000E945F0B0E940506BB20F1F00E9464169F
:1020B00080FD1AC0F70112820E945E160E94F81479
:1020C000C7010E9482100E945E16DF91CF911F917E
:1020D0000F91FF90EF90DF90CF90BF907F906F9027
:1020E0005F904F900C941915DF91CF911F910F9134
:1020F000FF90EF90DF90CF90BF907F906F905F90B8
:102100004F9008950F931F93CF93DF93EC01888135
:1021100099812B813C81232BB9F09F3F11F48F3F94
:1021200099F0CE010E947C04882371F06881798146
:102130008A810E943B168C010E9495150E9496147C
:10214000B801CE010E940E0EDF91CF911F910F9129
:1021500008950E94E5160E94F5168091490190911C
:102160004A010E94B3170E948F160E943D1C0E94D4
:10217000A41B80E090E00E94810B80E090E00C9432
:10218000970B0E94D2160C94A9100E943016E92FCA
:10219000E295EF70F0E03297EE30F105B0F4E357DE
:1021A000FF4F0C948F23803F91F018F4803E68F429
:1021B0000EC0843F51F40BC0803E48F0813F29F4AB
:1021C00006C093FB882780F9089580E0089581E098
:1021D0000895CF93DF9300D000D01F92CDB7DEB724
:1021E0000F900F900F900F900F90DF91CF91089567
:1021F000CF93DF9300D000D000D0CDB7DEB72696C6
:102200000FB6F894DEBF0FBECDBFDF91CF9108951A
:102210001F93CF93DF93C091B20116E08091B30179
:10222000C81799F0D0E01C9FF0011D9FF00D1124FC
:10223000EC54FE4F4081518162817381848195818C
:102240000E94F8102196C770E9CFDF91CF911F91BE
:1022500008954091E4015091E5016091E60170918B
:10226000E7018091E8019091E9010C94F8108091C8
:10227000E90182958F7009F054C08091E6018823AE
:1022800009F44FC08091B201A091B3016091E401C3
:102290007091E5014091E7015091E801B6E08A179D
:1022A00009F43FC090E041155105C1F17F3F11F4A1
:1022B0006F3FA1F1B89FF001B99FF00D1124EC54CC
:1022C000FE4F218172132AC02081621327C0228110
:1022D000211124C0238134812417350710F42150A3
:1022E0003109241B350B283C3105C0F42091E9014C
:1022F0002F7020612093E90126E0289FF001299F9B
:10230000F00D1124E754FE4F80818F70806180832F
:1023100084EE91E00E9482100C940811019687705F
:10232000BECF0895CF92DF92EF92FF920F931F934B
:10233000CF93DF93CDB7DEB762970FB6F894DEBFC9
:102340000FBECDBF8C0185E0F801DE011D96019026
:102350000D928A95E1F7D8014C9111965C911197F5
:1023600012966C9112971396CD90DC901497309141
:10237000E4017091E5018091E7019091E8010097F7
:1023800009F46BC17F3F19F43F3F09F466C1E09047
:10239000E601EE2009F4C0C02091E901C816D90673
:1023A00028F0F601E81BF90BCF0104C08095909549
:1023B0008C0D9D1DFF24F394883C910578F0F12C41
:1023C000207F09F0C6C07C2DD98AC88A89890E94DD
:1023D000E91084EE91E00E948210B1C0822F807FCC
:1023E00009F046C0751314C0341312C0611110C037
:1023F0002F7020612093E9010E94291184EE91E061
:102400000E9482108091E901D80115968C932EC00C
:10241000CD2819F15F3F11F44F3FF9F0F62E61110D
:102420001CC08091B2012091B30136E0821709F4FB
:102430005AC090E0389FF001399FF00D1124EC5400
:10244000FE4F7181571306C07081471303C072811C
:10245000711103C001968770E9CFF62E662309F447
:1024600027C18091E90181608093E901F12C20C1AD
:10247000751308C0341306C0611104C08091E901CE
:10248000D801C3C04D875E878D859E856A8B0E946B
:10249000C5106A898823E1F16623D1F12091E90111
:1024A000822F82958F7090E0029774F08091E40102
:1024B0009091E50198878F831986DB86CA862C87E1
:1024C000CE0107960E94821086E0F801A4EEB1E0EA
:1024D00001900D928A95E1F70E9437110E9429110F
:1024E000FF24F394E5C04D875E878D859E850E940D
:1024F0003016292F22952F7030E0223031050CF054
:10250000CBC09F7009F0C5C0805E883008F4D0C091
:10251000C8010E948210E4CFC816D90608F453C03F
:10252000F601E81BF90BCF01883C910508F450C077
:10253000F12C7C2DD98AC88A89890E94E910E4EEA1
:10254000F1E086E0DF011D928A95E9F70E942911EA
:10255000AFC0751314C0341312C0611110C0809144
:10256000E901F8018583C8010E94821086E0E4EE4B
:10257000F1E0DF011D928A95E9F7FE2C99C04D87A5
:102580005E878D859E856A8B0E94C5106A89882327
:1025900009F4BECF662309F4BBCF2091E901822F55
:1025A00082958F7090E002970CF48ECF8091E401B9
:1025B0009091E5019A8389831B82DD82CC822E83F0
:1025C000CE0101967FCF809590958C0D9D1DACCF4F
:1025D000F62E662309F49CCF75132EC034132CC03D
:1025E0002091E90120FD1FC0822F82958F70D9F0C4
:1025F000D80115962C9315978F3049F08F5F982F3F
:102600009295907F822F8F70892B15968C93C8019D
:102610000E94821086E0F801A4EEB1E001900D92D4
:102620008A95E1F793CF86E0F801A4EEB1E001903E
:102630000D928A95E1F73CC04D875E878D859E851A
:102640000E94C510811140CF8091E9018160809383
:10265000E901C8010E9482102BC0662309F458CFFB
:102660004D875E878D859E850E94C510F82E882334
:1026700009F44ECF86E0F801A4EEB1E001900D928E
:102680008A95E1F784EE91E00E94A40C0E94371134
:102690005DCF811139CF0CC0243031050CF038CF1B
:1026A0009F7009F431CFF8019581907F09F02CCF0C
:1026B0008F2D62960FB6F894DEBF0FBECDBFDF91AF
:1026C000CF911F910F91FF90EF90DF90CF900895E1
:1026D0001F93CF93DF93CDB7DEB72C970FB6F89447
:1026E000DEBF0FBECDBF4F83588769877A878B8740
:1026F0009C87CE0107960E949211882369F08F81F2
:1027000098852A853B85232BF1F19F3F09F063C013
:102710008F3F09F060C037C086E0FE013796DE01CA
:10272000119601900D928A95E1F76F817885EA857F
:10273000FB85309741F17F3F11F46F3F21F12091EC
:10274000B30130E0C9010196877099274091B20129
:1027500050E08417950709F447C069837A83FD83A5
:10276000EC8396E0929FD001939FB00D1124AC545E
:10277000BE4FFE01319601900D929A95E1F780933C
:10278000B3010E94081116E08091B2019091B3014B
:102790008917C1F1189FC00111248C549E4F0E94CB
:1027A0009211882379F1E091B2011E9FF00111246A
:1027B000EC54FE4F40815181628173818481958107
:1027C0000E94F8108091B20190E0019687709927DD
:1027D0008093B201D9CF4F81588569857A858B85E1
:1027E0009C850E94F810CFCF0E94C1101092B301B7
:1027F0001092B201E4EEF1E086E0DF011D928A95CD
:10280000E9F7C1CF2C960FB6F894DEBF0FBECDBF4F
:10281000DF91CF911F910895EF92FF920F931F9335
:10282000CF93DF938C01892B09F46CC0F12CEE243B
:10283000E394E8012196F8018491843740F48430D0
:1028400008F051C0813081F0823019F15BC08537CA
:1028500009F444C0A8F19CE7980F903708F052C0E3
:102860008F770E94A10D41C00E5F1F4FFE01C491E2
:1028700080E28C0F883048F4C7708E2D01C0880F1D
:10288000CA95EAF70E94E81614C08C2F0E94AA0C81
:102890002DC00E5F1F4FFE01C49180E28C0F883067
:1028A00058F4C7708E2D01C0880FCA95EAF70E94B0
:1028B000EE160E948F161AC08C2F0E94A10D16C012
:1028C0000E5F1F4FFE01C491CC2381F08FE99FE082
:1028D0000197F1F700C00000C150F6CF0E5F1F4F07
:1028E000FE01F49003C00E94AA0C8E018F2D882354
:1028F00009F49FCFEFE9FFE03197F1F700C0000046
:102900008150F5CFDF91CF911F910F91FF90EF9004
:10291000089508950E948914609307027093080235
:102920008093090290930A020C94A91008950C94C4
:102930008A140F931F9300910702109108022091AF
:10294000090230910A02602B712B822B932B1F916D
:102950000F910C948A140F931F930091070210910A
:1029600008022091090230910A0260237123822318
:1029700093231F910F910C948A140F931F9300912E
:102980000702109108022091090230910A02602783
:102990007127822793271F910F910C948A14089511
:1029A0000C94CF140E94D01460930302709304021D
:1029B00080930502909306020C94A91060E070E0E9
:1029C000CB010C94D2140F931F9341E050E060E0D0
:1029D00070E08A019B0104C0000F111F221F331FEA
:1029E0008A95D2F7C901B8011F910F910C94D214A6
:1029F0000F931F9341E050E060E070E004C0440F8B
:102A0000551F661F771F8A95D2F780910302909118
:102A10000402A0910502B09106028A019B01082BD5
:102A2000192B2A2B3B2BC901B8011F910F910C9434
:102A3000D2140F931F9341E050E060E070E004C0B7
:102A4000440F551F661F771F8A95D2F74095509502
:102A5000609570958091030290910402A091050207
:102A6000B09106028A019B01082319232A233B23E4
:102A7000C901B8011F910F910C94D2140F931F93A9
:102A800041E050E060E070E004C0440F551F661F55
:102A9000771F8A95D2F78091030290910402A0914A
:102AA0000502B09106028A019B01082719272A27EF
:102AB0003B27C901B8011F910F910C94D2140F93B9
:102AC0001F9300910302109104022091050230919E
:102AD0000602602B712B822B932B1F910F910C946C
:102AE000D2140F931F9300910302109104022091BE
:102AF00005023091060260237123822393231F91E4
:102B00000F910C94D2140F931F9300910302109114
:102B10000402209105023091060260277127822766
:102B200093271F910F910C94D21408952BE0929F3C
:102B3000800D1124A82FA695A695A695877051E023
:102B400001C0550F8A95EAF785E0A89FD0011124AE
:102B500020E030E070E0F901EA0FFB1FE651FE4F84
:102B60004081CB01022E02C0969587950A94E2F728
:102B700081709927819584278523842780832F5FFF
:102B80003F4F2530310539F708952BE0929F800D96
:102B90001124682F669566956695982F977085E045
:102BA000689FB001112440E050E080E0FA01E60F98
:102BB000F71FE651FE4F208130E0092E02C0369506
:102BC00027950A94E2F721703327042E01C0220FC3
:102BD0000A94EAF7822B4F5F5F4F4530510531F77A
:102BE0000895CF92DF92EF92FF920F931F93CF93AE
:102BF000DF938C01C0900702D0900802E090090298
:102C0000F0900A028091030290910402A0910502C3
:102C1000B0910602C82AD92AEA2AFB2ACFE1D0E0DD
:102C2000D701C6010C2E04C0B695A7959795879538
:102C30000A94D2F780FF06C0B8018C2F0E942506A7
:102C4000019721F4219760F780E001C08C2FDF917C
:102C5000CF911F910F91FF90EF90DF90CF9008954B
:102C6000CF93DF93EC010E94F115BE010E9425066F
:102C7000DF91CF9108951F93CF93DF93EB01909154
:102C8000B101992321F0CB010E94301613C0882393
:102C900049F0CB010E94F115182F682FCE010E9438
:102CA000961504C0CB010E94C515182FBE01812FB7
:102CB0000E942506DF91CF911F91089580910B020C
:102CC000859585958595089580910B028770089567
:102CD00098E0899F90011124262B20930B020C94DD
:102CE000F81420910B028095822380930B02982F79
:102CF000977069F430E0482F082E000C550B24170C
:102D0000350729F08595859585950C9419150895B5
:102D100090910B02977081E009F480E00895E091B2
:102D20004901F0914A0180912F028083E09149018D
:102D3000F0914A01908180912E02892B8083E0914D
:102D40004901F0914A01908180912D02892B808365
:102D500080910C02882381F0E0914901F0914A01B1
:102D60009081892B80838091490190914A010E9432
:102D70004117811110920C028091490190914A01F2
:102D80000C946B0B80912F02089590912F02892B48
:102D900080932F020895809590912F02892380932C
:102DA0002F02089510922F02089580912E02089507
:102DB00090912E02892B80932E02089580959091F8
:102DC0002E02892380932E02089510922E020895D8
:102DD00090912D02892B80932D02089580959091DA
:102DE0002D02892380932D02089510922D020895BB
:102DF00080930C02089510920C02089580910C02A9
:102E000008956DEE7EEF80E090E00E94C92360E0BF
:102E100082E090E00E94B72360E083E090E00E94AF
:102E2000B72360E084E090E00E94B72360E085E093
:102E300090E00C94B72380E090E00E94B12321E061
:102E40008D3E9E4F09F020E0822F089582E090E0B1
:102E50000C94A923682F82E090E00C94B72383E0C0
:102E600090E00C94A923682F83E090E00C94B723A2
:102E700084E090E00C94A923682F84E090E00C9407
:102E8000B723FC0131969C01205E3F4F80E0919179
:102E900091118F5FE217F307D1F708959C01FC01B0
:102EA00032969FEF80E04191461789F09F3F19F4D9
:102EB000411101C0982F8F5F8E31A9F79F3F39F0E4
:102EC000F901E90FF11D97FDFA95628308950895C0
:102ED000FC01329680962081261301C01082319623
:102EE000E817F907C1F70895262F26952695269508
:102EF0002F3168F4FC01E20FF11D677021E030E032
:102F000001C0220F6A95EAF78181282B2183089559
:102F1000262F2695269526952F3170F4FC01E20F79
:102F2000F11D677021E030E001C0220F6A95EAF7D9
:102F30002095818128232183089520915B012223FC
:102F400029F02091640227FD0C9474170C944E17FD
:102F500020915B01222329F02091640227FD0C942B
:102F600088170C946817FC01319680961192E81727
:102F7000F907E1F7089508950C94BB1780916A0250
:102F8000843049F11092310220E488E190E00FB6DC
:102F9000F894A895809360000FBE2093600080E0B5
:102FA0000E9405060E94BC1783B7817F846083BF9F
:102FB00083B7816083BF7894889583B78E7F83BF02
:102FC0000FB6F894A89580916000886180936000A6
:102FD000109260000FBE089508950895CF930E9447
:102FE000EC170E9416090E94ED17C0E08C2F0E947A
:102FF000D009892B29F4CF5FC330C1F780E001C02D
:1030000081E0CF91089508950C9403180E94C11097
:103010000E945F0B0E9405060C9404181F920F92E9
:103020000FB60F9211248F939F93AF93BF9380910C
:103030003102811113C08091600290916102A091D0
:103040006202B09163024196A11DB11D809360029E
:1030500090936102A0936202B0936302BF91AF911B
:103060009F918F910F900FBE0F901F90189582E047
:1030700084BD93E095BD9AEF97BD80936E0008954F
:103080002FB7F8948091600290916102A091620242
:10309000B09163022FBF0895CF92DF92EF92FF921B
:1030A0000F931F932FB7F8944091600250916102E3
:1030B00060916202709163022FBF6A017B01EE246E
:1030C000FF248C0120E030E0C016D106E206F306B2
:1030D00010F4415051099A01281B390BC9011F9165
:1030E0000F91FF90EF90DF90CF90089578941F920A
:1030F0000F920FB60F9211248F939F93AF93BF93AC
:103100008091600290916102A0916202B09163028D
:103110000196A11DB11D8093600290936102A0935E
:103120006202B0936302BF91AF919F918F910F9014
:103130000FBE0F901F90189581E08093E00080E211
:103140008093D8001092C9008FE19EE40197F1F7B7
:1031500000C0000087E090EBDC0180937302909345
:103160007402A0937502B09376029CE088E10FB6DA
:10317000F894A895809360000FBE90936000FFCFF5
:10318000AF92BF92CF92DF92EF92FF920F931F9375
:10319000CF93C0E0CC24C394D12CE82EF12C8C2FFB
:1031A0000E94D0095C0100E010E09601002E02C0F0
:1031B000220F331F0A94E2F72A213B21232B31F4FB
:1031C0000F5F1F4F0B30110581F70AC0602F7C2F56
:1031D00080E00E940B06E816F90691F781E004C032
:1031E000CF5FC330E1F680E0CF911F910F91FF9048
:1031F000EF90DF90CF90BF90AF900895CF93C82FFE
:103200008CE20E94C018882321F08C2FCF910C945F
:10321000C01880E0CF910895CF930E941B178111B1
:1032200002C00E940117C5E6C15049F00E9416096C
:103230008FE39CE90197F1F700C00000F5CF89E228
:103240000E94FE1881110FC18AE20E94FE188111AE
:103250000E94011785E00E94FE1881110E949C18AF
:103260000E9426178093300287E00E94FE18882370
:10327000A9F18BE10E94FE18882351F08091300261
:1032800081FB222720F991E0922790FB81F90EC063
:103290008EE00E94FE18882361F08091300282FB4C
:1032A000222720F991E0922790FB82F98093300247
:1032B00015C080E10E94FE1890913002882341F0F1
:1032C00093FB222720F981E0822780FB93F904C039
:1032D000892F809580FB90F9909330028091300285
:1032E0000E942A170E94381790E0909365028093FD
:1032F000640280EE0E94FE18882341F080916402EF
:10330000982F909590FB80F98093640289E30E9446
:10331000FE18882359F08091640281FB222720F94E
:1033200091E0922790FB81F98093640282EE0E94E3
:10333000FE18882359F08091640282FB222720F92D
:1033400091E0922790FB82F98093640286EE0E94BE
:10335000FE18882359F08091640283FB222720F90C
:1033600091E0922790FB83F98093640283EE0E94A0
:10337000FE18882359F08091640284FB222720F9EB
:1033800091E0922790FB84F98093640285E30E9488
:10339000FE18882359F08091640285FB222720F9CA
:1033A00091E0922790FB85F98093640281E30E946B
:1033B000FE18882359F08091640286FB222720F9A9
:1033C00091E0922790FB86F98093640281E10E944C
:1033D000FE18882359F08091640287FB222720F988
:1033E00091E0922790FB87F98093640280916402B8
:1033F0000E943C1787E20E94FE18C82F8EE10E94AF
:10340000FE188111C2608FE10E94FE188111C46014
:1034100080E20E94FE188111C86081E20E94FE18BD
:103420008111C06182E20E94FE188111C06283E2B4
:103430000E94FE188111C06484E20E94FE18882355
:1034400011F0C06802C0CC2329F08C2F0E943317E2
:103450006C2F03C00E942F17682F70E080E090E06F
:10346000CF910C949714CF9108958091340280FFEE
:103470000BC060914E0185E0689FB00111247595E5
:103480006795759567952BC081FF09C060914E01C6
:1034900085E0689FB00111247595679520C082FF73
:1034A00007C060914E0185E0689FB001112417C0EC
:1034B000909135029923D1F060914D01961788F7CC
:1034C00020914E0185E0289F90011124929FA00138
:1034D000939F500D112470E0CA010E947B23603835
:1034E000710540F46115710539F002C065E070E0C6
:1034F000862F08958FE7089581E008958091340222
:1035000080FF08C060914C0170E0759567957595D6
:10351000679521C081FF06C060914C0170E07595F0
:10352000679519C082FF04C060914C0170E010C023
:10353000909135029923C1F060914B019617A0F745
:1035400080914C01899FC001112470E00E947B236F
:103550006038710528F46115710521F0862F0895F2
:103560008FE7089581E0089561E070E0F4CF803F37
:1035700021F40E94351A819504C0813F29F40E94EC
:10358000351A809338020895823F21F40E94351A3B
:10359000819504C0833F29F40E94351A8093370235
:1035A0000895893F19F40E947E1A05C08A3F31F4BC
:1035B0000E947E1A81958093390208958B3F21F4F1
:1035C0000E947E1A819504C08C3F29F40E947E1AC5
:1035D00080933A020895843F21F4809136028160FD
:1035E00017C0853F21F480913602826011C0863F6A
:1035F00021F48091360284600BC0873F21F48091D2
:103600003602886005C0883F31F4809136028061BF
:103610008093360208958D3F21F4809134028160B9
:103620000BC08E3F21F480913402826005C08F3F31
:1036300029F4809134028460809334020895803F9D
:1036400039F48091380287FF6CC01092380269C04B
:10365000813F29F4809138021816BCF362C0909122
:103660003702823F29F497FF5CC01092370259C09D
:10367000833F19F41916CCF354C0893F41F480916B
:10368000390218160CF04DC0109239024AC08A3F18
:1036900029F48091390287FF44C0F6CF8B3F39F47B
:1036A00080913A0287FF3DC010923A023AC08C3FA7
:1036B00029F480913A021816BCF333C0843F21F4F8
:1036C000809136028E7F17C0853F21F480913602AB
:1036D0008D7F11C0863F21F4809136028B7F0BC015
:1036E000873F21F480913602877F05C0883F31F4FF
:1036F000809136028F7E8093360213C08D3F21F475
:10370000809134028E7F0BC08E3F21F48091340271
:103710008D7F05C08F3F29F4809134028B7F809389
:1037200034028091370281110EC0809138028111DC
:103730000AC080913902811106C080913A0281113C
:1037400002C010923502089586E392E00E94760B43
:103750000E944018909333028093320208951F9381
:10376000CF93DF9380913202909133020E944C18E4
:10377000AC0190913502992321F020914F0130E066
:1037800006C0209150018AE0289F90011124421721
:10379000530708F46EC080913702C0913802D0916F
:1037A000390210913A02811107C0C1115EC0D111D6
:1037B0005CC011115AC05DC09F3F19F09F5F90938C
:1037C0003502181624F40E94351A8093370280912E
:1037D000370287FF05C00E94351A81958093370212
:1037E0001C1624F40E94351A809338028091380206
:1037F00087FF05C00E94351A819580933802409159
:103800003702442379F030913802332359F025EB05
:103810004203A0011124509337023203C001112446
:10382000909338021D1624F40E947E1A8093390268
:103830008091390287FF05C00E947E1A819580938E
:103840003902111624F40E947E1A80933A02809164
:103850003A0287FF05C00E947E1A819580933A0242
:10386000DF91CF911F910C94A41B9F3F09F0A6CF2D
:10387000AECFDF91CF911F910895E6E3F2E085E0AE
:10388000DF011D928A95E9F71092350210923402F9
:10389000089580915B0208950F931F93CF93DF9358
:1038A00000D01F92CDB7DEB78C010E94C21E8230BD
:1038B00011F0843019F593E099831B830A83909368
:1038C000E9008FEF9091E800815095FD06C095EDDD
:1038D0009A95F1F700008111F5CF8091E80085FFFE
:1038E0000DC040E050E063E070E0CE0101960E9420
:1038F000DF1E8091E8008E778093E8000F900F9094
:103900000F90DF91CF911F910F910895CF93DF9387
:1039100000D01F92CDB7DEB720916A02243031F576
:1039200022E02983805891099B838A8383E08093D6
:10393000E9008FEF9091E800815095FD06C095ED6C
:103940009A95F1F700008111F5CF8091E80085FF8D
:103950000DC040E050E063E070E0CE0101960E94AF
:10396000DF1E8091E8008E778093E8000F900F9023
:103970000F90DF91CF910895CF93DF93EC010E94D8
:10398000C21E823011F08430F9F482E08093E900A5
:103990009FEF8091E800915085FD06C085ED8A95E6
:1039A000F1F700009111F5CF8091E80085FF0CC080
:1039B00040E050E065E070E0CE010E94DF1E8091A3
:1039C000E8008E778093E800DF91CF910895CF9340
:1039D000DF93EC010E94C21E823019F0843009F09E
:1039E00047C080915B018823E1F08091640287FFEA
:1039F00018C084E08093E9008FEF9091E800815037
:103A000095FD06C095E19A95F1F700008111F5CF7B
:103A10008091E80085FF2CC040E050E060E270E05B
:103A200017C081E08093E9008FEF9091E80081500A
:103A300095FD06C095ED9A95F1F700008111F5CF3F
:103A40008091E80085FF14C040E050E068E070E03D
:103A5000CE010E94DF1E8091E8008E778093E800FF
:103A600080E2FE01ABE3B2E001900D928A95E1F7AE
:103A7000DF91CF91089580916902811109C00E9460
:103A800074200E94D1208091E20084608093E20043
:103A90000895109269020895089508950C940618E7
:103AA00042E061EC81E00E94EE1F42E061EC82E0C6
:103AB0000E94EE1F42E061EC83E00E94EE1F42E2B2
:103AC00061EC84E00C94EE1F80916C02833009F469
:103AD00055C030F4813071F0823009F48EC0089501
:103AE0008A3009F47AC08B3009F460C0893009F05B
:103AF0009CC020C080916B02813A09F096C08091F1
:103B0000E800877F8093E80080916F0290917002B7
:103B1000892B21F460E28BE392E003C060E080E057
:103B200090E070E00E942A1F8091E8008B778093DC
:103B3000E800089580916B02813209F076C080918F
:103B40006F0290917002009719F0039709F06DC011
:103B50008091E800877F8093E8008091E80082FDF3
:103B600005C080916A028111F8CF5FC08091F10099
:103B700080935B028091E8008B7753C080916B0249
:103B8000813A09F052C080916F0290917002892BA6
:103B900009F04BC08091E800877F8093E800809116
:103BA000E80080FFFCCF80915B0136C080916B0202
:103BB0008132D9F580916F0290917002892BA9F51D
:103BC0008091E800877F8093E8000E942320809105
:103BD0006D0280935B010C94C11080916B02813265
:103BE00021F58091E800877F8093E8000E942320E0
:103BF00080916E0280935C02089580916B02813AFD
:103C0000A1F48091E800877F8093E8008091E8002C
:103C100080FFFCCF80915C028093F1008091E800EE
:103C20008E778093E8000C942320089584B7877FD3
:103C300084BF0FB6F894A895809160008861809346
:103C40006000109260000FBE80E8809361001092C7
:103C500061000E94AE0B0E9474200E94D1208091CE
:103C6000E20084608093E20078940E9460230E94C6
:103C7000B20B81E591E00E945A0B80916A02853077
:103C800069F40E94BE17809168028823B1F30E94F4
:103C9000EE17882391F30E94C91EEFCF0E94B80B44
:103CA000ECCF0C94531E292F332723303105C9F054
:103CB00064F42130310581F02230310509F049C02A
:103CC0008DE690E020EA35E048C02132310521F14F
:103CD0002232310571F13DC082E190E02DE036E005
:103CE0003CC099278130910571F02CF4892B89F51E
:103CF000ECE9F5E00DC08230910541F0039749F5FC
:103D0000EAE6F5E005C0E4E8F5E002C0E0E7F5E04A
:103D1000849190E09F0121C064307105D0F4660F5A
:103D2000771FFB01EA58FE4F2081318189E090E046
:103D300014C06430710568F4FB01EE0FFF1FE259F7
:103D4000FE4F20813181FB01E659FE4F808190E0DA
:103D500004C080E090E020E030E0FA01318320836D
:103D600008950895CF93C82F0E94B11EC0935D029D
:103D7000CF91089580916A02843011F081E0089516
:103D800082E0089580915D02811102C00C94BA1EF8
:103D9000089580E189BD82E189BD09B400FEFDCFAF
:103DA0008091D8008F7D8093D8008091E000826060
:103DB0008093E0008091E00081FDFCCF0895CF92D8
:103DC000DF92EF92FF920F931F93CF93DF93EC015B
:103DD0008B016A010E944220811133C0C114D104B9
:103DE00039F0F60180819181081B190BC80FD91F8A
:103DF000E12CF12C0115110519F18091E80085FDE8
:103E000016C08091E8008E778093E800C114D10439
:103E100049F0F60180819181E80EF91EF182E0827D
:103E200085E00FC00E944220882321F30AC08991B7
:103E30008093F10001501109FFEFEF1AFF0ADACF6A
:103E400080E0DF91CF911F910F91FF90EF90DF9075
:103E5000CF90089520917102309172022617370792
:103E600048F06115710539F42091E8002E77209310
:103E7000E80001C0B90140E061157105A9F1209188
:103E80006A02222309F443C0253009F442C020917C
:103E9000E80023FD40C02091E80022FD32C02091BF
:103EA000E80020FFE9CF4091F3002091F20030E0DC
:103EB000342BFC01CF016115710559F02830310513
:103EC00040F481918093F100615071092F5F3F4F61
:103ED000F1CF41E02830310509F040E02091E800C1
:103EE0002E772093E800C8CF4111C9CF0AC0809136
:103EF0006A02882361F0853061F08091E80083FDDB
:103F00000AC08091E80082FFF2CF80E0089582E04D
:103F1000089583E0089581E0089520917102309121
:103F200072022617370748F06115710539F42091A0
:103F3000E8002E772093E80001C0B901FC0120E0E1
:103F40006115710591F180916A02882309F440C0DE
:103F5000853009F43FC08091E80083FD3DC0809129
:103F6000E80082FD2FC08091E80080FFE9CF20911A
:103F7000F3008091F20090E0922B6115710559F0E9
:103F80008830910540F424912093F10031966150DE
:103F900071090196F2CF21E0089709F020E08091A5
:103FA000E8008E778093E800CBCF2111CCCF0AC0F8
:103FB00080916A02882361F0853061F08091E80089
:103FC00083FD0AC08091E80082FFF2CF80E008956F
:103FD00082E0089583E0089581E00895982F973056
:103FE00058F59093E900981739F07091EC00209102
:103FF000ED005091F00003C0242F762F50E021FFF8
:1040000019C03091EB003E7F3093EB003091ED0012
:104010003D7F3093ED003091EB0031603093EB0049
:104020007093EC002093ED005093F0002091EE008F
:1040300027FF07C09F5FD3CF8F708093E90081E097
:10404000089580E0089580916B0287FF11C08091F0
:10405000E80082FD05C080916A028111F8CF11C08D
:104060008091E8008B770BC080916A02882349F029
:104070008091E80080FFF8CF8091E8008E778093F0
:10408000E80008952091E4003091E50095E6409124
:10409000EC00842F817040FF22C08091E80080FDF9
:1040A0001CC080916A02882391F0853091F0809144
:1040B000EB0085FD10C04091E4005091E5004217EF
:1040C000530729F39A01915011F784E0089582E093
:1040D000089583E0089581E0089580E00895409177
:1040E000E80042FFDECF08950E94E2200E94EA200D
:1040F000E0EEF0E0808181608083E8EDF0E0808197
:104100008F77808319BCA7EDB0E08C918E7F8C9364
:1041100080818F7E80831092690208950F931F9390
:10412000CF93DF930E94E2200E94EA20C8EDD0E006
:1041300088818F77888388818068888388818F7D54
:10414000888319BC10926A0210926602109268026B
:104150001092670200EE10E0F80180818B7F80836F
:1041600088818160888342E060E080E00E94EE1FE9
:10417000E1EEF0E080818E7F8083E2EEF0E08081EE
:1041800081608083808188608083F80180818E7F58
:104190008083888180618883DF91CF911F910F9107
:1041A0000895E8EDF0E080818F7E8083E7EDF0E018
:1041B00080818160808384E082BF81E08093690296
:1041C0000C948E20E8EDF0E080818E7F8083109249
:1041D000E20008951092DA001092E10008951F9213
:1041E0000F920FB60F9211242F933F934F935F932B
:1041F0006F937F938F939F93AF93BF93EF93FF93AF
:104200008091E10082FF0BC08091E20082FF07C035
:104210008091E1008B7F8093E1000E945F23809179
:10422000DA0080FF1FC08091D80080FF1BC0809102
:10423000DA008E7F8093DA008091D90080FF0DC074
:1042400080E189BD82E189BD09B400FEFDCF81E036
:1042500080936A020E943B1D05C019BC10926A023D
:104260000E94491D8091E10080FF19C08091E20009
:1042700080FF15C08091E2008E7F8093E2008091E4
:10428000E20080618093E2008091D8008062809398
:10429000D80019BC85E080936A020E944D1D809170
:1042A000E10084FF30C08091E20084FF2CC080E1F7
:1042B00089BD82E189BD09B400FEFDCF8091D8009F
:1042C0008F7D8093D8008091E1008F7E8093E10004
:1042D0008091E2008F7E8093E2008091E200816015
:1042E0008093E20080916602882311F084E007C089
:1042F0008091E30087FD02C081E001C083E08093EC
:104300006A020E944E1D8091E10083FF29C08091C6
:10431000E20083FF25C08091E100877F8093E10068
:1043200082E080936A02109266028091E1008E7FA3
:104330008093E1008091E2008E7F8093E200809183
:10434000E20080618093E20042E060E080E00E9451
:10435000EE1F8091F00088608093F0000E944C1D59
:10436000FF91EF91BF91AF919F918F917F916F914D
:104370005F914F913F912F910F900FBE0F901F9023
:1043800018951F920F920FB60F9211242F933F93FF
:104390004F935F936F937F938F939F93AF93BF934D
:1043A000CF93DF93EF93FF93C091E900CF7080919B
:1043B000EC00D82FD17080FDD0E81092E9008091F8
:1043C000F000877F8093F00078940E94052210927D
:1043D000E9008091F00088608093F000CD2BCF70D1
:1043E000C093E900FF91EF91DF91CF91BF91AF9121
:1043F0009F918F917F916F915F914F913F912F91FD
:104400000F900FBE0F901F9018951F93CF93DF93BF
:10441000CDB7DEB7AA970FB6F894DEBF0FBECDBFFB
:10442000EBE6F2E088E08E0F9091F10091938E130D
:10443000FBCF0E94641D8091E80083FF28C180911A
:104440006B0290916C02492F50E04A30510508F000
:104450001EC1FA01E556FF4F0C948F23803821F0DE
:10446000823809F014C108C08091670290916802F7
:10447000992389F082600FC080916F028F7087301E
:1044800008F005C18093E9008091EB0085FB882747
:1044900080F91092E9009091E800977F9093E800EE
:1044A0008093F1001092F100D0C0282F2D7F09F0E9
:1044B000EEC0882319F0823061F0E9C080916D026E
:1044C000813009F0E4C0933009F080E08093680205
:1044D0002EC080916D0281112AC080916F028F7071
:1044E0002FEF280F263008F0D2C08093E9002091EA
:1044F000EB0020FF1CC0933021F48091EB00806220
:1045000014C09091EB0090619093EB0021E030E0BB
:10451000A90102C0440F551F8A95E2F74093EA00B3
:104520001092EA008091EB0088608093EB0010927B
:10453000E9008091E800877F8093E8000E942320B3
:10454000A6C08111A4C010916D021F778091E30075
:104550008078812B8093E3008091E800877F8093AF
:10456000E8000E9423208091E80080FFFCCF80912A
:10457000E30080688093E300111102C082E001C073
:1045800083E080936A0283C08058823008F07FC045
:1045900080916D0290916E028C3D53E0950779F504
:1045A00083E08A838AE289834FB7F894DE01139609
:1045B00020E03EE051E2E32FF0E050935700E49119
:1045C00020FF03C0E295EF703F5FEF708E2F90E009
:1045D000EA3010F0C79601C0C0968D939D932F5F6F
:1045E000243149F74FBF8091E800877F8093E8002E
:1045F0006AE270E0CE0101960E942A1F15C0609108
:104600006F0270917002AE014F5F5F4F0E94511EAA
:10461000BC01892BE1F19091E800977F9093E8002D
:1046200089819A810E948D1F8091E8008B77809309
:10463000E8002DC0803859F58091E800877F80938D
:10464000E800809166028093F1008091E8008E7707
:1046500073CF81111CC090916D029230C0F4809193
:10466000E800877F8093E800909366020E942320F1
:1046700080916602811106C08091E30087FD02C02F
:1046800081E001C084E080936A020E94501D809105
:10469000E80083FF0AC08091E800877F8093E800EC
:1046A0008091EB0080628093EB00AA960FB6F8949D
:1046B000DEBF0FBECDBFDF91CF911F91089508954A
:1046C000CF9380916A028823A1F0C091E900CF7056
:1046D0009091EC00892F817090FD80E8C82B10929A
:1046E000E9008091E80083FD0E940522CF70C0930D
:1046F000E900CF91089597FB072E16F4009407D098
:1047000077FD09D00E94952307FC05D03EF49095D3
:1047100081959F4F0895709561957F4F0895EE0F95
:10472000FF1F0590F491E02D0994AA1BBB1B51E1DA
:1047300007C0AA1FBB1FA617B70710F0A61BB70B11
:10474000881F991F5A95A9F780959095BC01CD01B6
:104750000895F999FECF92BD81BDF89A992780B549
:104760000895A8E1B0E042E050E00C94D123262F58
:10477000F999FECF92BD81BDF89A019700B4021657
:1047800039F01FBA20BD0FB6F894FA9AF99A0FBE05
:1047900008950196272F0E94B8230C94B723DC01BB
:1047A000CB01FC01F999FECF06C0F2BDE1BDF89A3C
:1047B000319600B40D9241505040B8F70895F894E6
:0247C000FFCF29
:1047C200F9090A0A1A0A00000000000000000000AD
:1047D20000004401F9090A0A1A0A00000000000058
:1047E2000000000000004001F9090A0A1A0A00004C
:1047F200000000000000000000003C012F00380013
:104802003400360033003700FF0D022808140A3244
:104812001E491CE71CBC1C861C4C1C013031323367
:1048220034353666679091929394404D3639DB0663
:0E4832008E0658061F06B205CB05E405FD05EF
:00000001FF
